:100000000C94C9000C944B020C9459020C94E60019
:100010000C94E6000C94E6000C94E6000C94E600C8
:100020000C94E6000C94E6000C94E6000C94E600B8
:100030000C94E6000C947C010C9452010C94E600A4
:100040000C945D010C94E6000C94E6000C94E60020
:100050000C94E6000C94E6000C94E6000C94E60088
:100060000C94E6000C94E600550C5F0C6A0C750CC1
:10007000800C8B0C960CA10CAC0CB70CC20CCD0CEC
:10008000D80CE30CEE0CF90C040D0F0D1A0D250D18
:10009000300D3B0D670D460D510D5C0D084AD73BE9
:1000A0003BCE016E84BCBFFDC12F3D6C74319ABD47
:1000B00056833DDA3D00C77F11BED9E4BB4C3E916B
:1000C0006BAAAABE000000803F072C7AA5BA6CC5B7
:1000D00090DA3B9365FC8BBC53F810FD3C56928341
:1000E0004DBD879D3AB63DCBC9BF5BBE73DA0FC924
:1000F0003F05A84CCDB2D44EB93836A9020C50B940
:10010000918688083CA6AAAA2ABE000000803F0764
:10011000634236B79BD8A71A39685618AEBAAB55A2
:100120008C1D3CB7CC5763BD6DEDFD753EF6177267
:1001300031BF000000803F08000000BE9224491239
:100140003EABAAAA2ABECDCCCC4C3E00000080BE5D
:10015000ABAAAAAA3E00000000BF000000803F003A
:1001600000000000084178D3BB4387D1133D190E2E
:100170003CC3BD4282AD2B3E68EC8276BED98FE196
:10018000A93E4C80EFFFBE01C4FF7F3F000000008E
:10019000000011241FBECFEFD8E0DEBFCDBF17E0B7
:1001A000A0E0B1E0E4E2FFE202C005900D92AE38BB
:1001B000B107D9F727E0AEE8B7E001C01D92A63A33
:1001C000B207E1F70E94F90A0C9490170C94000012
:1001D000CF93C82F8A3019F48DE00E94E8008091F7
:1001E000C00085FFFCCFC093C60080E090E0CF91B7
:1001F00008958091C00087FFFCCF8091C60090E0F9
:1002000008951092C50087E68093C400E0ECF0E00A
:1002100080818D7F808386E08093C20088E1809317
:10022000C100E0EAF7E08EE091E09383828380E012
:1002300091E091838083089520E030E04AE754E420
:100240000E94CC110E945110CB01089587B58830CF
:1002500068F087B5815087BD2FEF81EE94E0215083
:1002600080409040E1F700C00000F0CF089587B5CE
:10027000853268F487B58F5F87BD2FEF81EE94E0FC
:10028000215080409040E1F700C00000F0CF089579
:10029000569A83E084BD95E095BD80936E0082E11F
:1002A00087BD08951F920F920FB60F9211245E988A
:1002B0000F900FBE0F901F9018951F920F920FB6C0
:1002C0000F9211245E9A0F900FBE0F901F901895F9
:1002D000E1E8F0E0108287E286BB1092800086E0C1
:1002E0009FEF909385008093840081E080936F005E
:1002F00083E08083789408951F920F920FB60F9237
:1003000011248F939F9386E09FEF909385008093B5
:1003100084008091490190914A01019790934A018C
:100320008093490180913B0190913C01019790930A
:100330003C0180933B0180914F01909150010197C6
:1003400011F4419A01C0419880914101909142017C
:10035000019711F4439A01C0439880914D01909107
:100360004E01892BC9F0809145019091460101977A
:1003700099F4409A8AE18A95F1F700C040988091FB
:100380004D0190914E01019790934E0180934D0144
:10039000109246011092450180913F0190914001D9
:1003A000892BC9F08091370190913801019799F418
:1003B000429A8AE18A95F1F700C0429880913F0104
:1003C0009091400101979093400180933F011092DA
:1003D0003801109237018091490190914A01892B8F
:1003E00071F480914B0190914C0190934A0180935C
:1003F000490181E090E0909346018093450180910E
:100400003B0190913C01892B71F480913D019091C9
:100410003E0190933C0180933B0181E090E09093FA
:100420003801809337019F918F910F900FBE0F90ED
:100430001F90189590938F0780938E0708952091B1
:100440008E0730918F0781E090E0232B11F080E040
:1004500090E0089587B18F6087B984B1886384B9CB
:100460008AB1837F8AB98BB18C608BB98AE0809323
:10047000690083E08DBB789418B8E0915101F09148
:100480005201EE0FFF1FE35EFE4F8081918195B117
:10049000892B85B908951F920F920FB60F921124E0
:1004A00010924E0110924D010F900FBE0F901F90B1
:1004B00018951F920F920FB60F92112410924001BF
:1004C00010923F010F900FBE0F901F9018958F92C2
:1004D0009F92AF92BF92CF92DF92EF92FF920F93D3
:1004E0001F93CF93DF93CDB7DEB760970FB6F89425
:1004F000DEBF0FBECDBFA982BA82CB82DC82ED8285
:10050000FE820F83188729813A814B815C816F8D30
:1005100078A189A19AA10E94F60E4B015C012D8160
:100520003E814F8158856BA17CA18DA19EA10E9427
:10053000F60E6B017C01A5019401C501B4010E9476
:10054000CC114B015C01A7019601C701B6010E94C5
:10055000CC119B01AC01C501B4010E94F70E60965D
:100560000FB6F894DEBF0FBECDBFDF91CF911F91C4
:100570000F91FF90EF90DF90CF90BF90AF909F9042
:100580008F900C94971220E030E044E353E40E94F3
:10059000CC112BED3FE049E450E40E94DF0F0895B9
:1005A0002BED3FE049E450E40E94CC1120E030E024
:1005B00044E353E40E94DF0F08954F925F926F92DD
:1005C0007F928F929F92AF92BF92CF92DF92EF92E3
:1005D000FF920F931F93CF93DF9300D000D0CDB73E
:1005E000DEB74B015C0129013A01E982FA820B83F3
:1005F0001C839B01AC010E94CC116B017C01A30107
:100600009201C301B2010E94CC119B01AC01C70150
:10061000B6010E94F70E6B017C0129813A814B8162
:100620005C81CA01B9010E94CC119B01AC01C701D8
:10063000B6010E94F60E6B017C01A5019401C50173
:10064000B4010E94F70EA30192010E94CC119B01FC
:10065000AC01C701B6010E94DF0F0F900F900F9001
:100660000F90DF91CF911F910F91FF90EF90DF904E
:10067000CF90BF90AF909F908F907F906F905F9042
:100680004F900C94E50E4F925F926F927F928F92F3
:100690009F92AF92BF92CF92DF92EF92FF920F9311
:1006A0001F93CF93DF93CDB7DEB764970FB6F8945F
:1006B000DEBF0FBECDBFA982BA82CB82DC82ED82C3
:1006C000FE820F831887C980DA80EB80FC808FA0C0
:1006D00098A4A9A4BAA4A5019401C701B6010E94D7
:1006E000D50F81110DC0EFA9F8AD108211821282D1
:1006F0001382E9ADFAADC082D182E282F38234C0C6
:100700004D805E806F807884A30192016BA57CA5EB
:100710008DA59EA50E94F60E698B7A8B8B8B9C8B88
:10072000A7019601C501B4010E94F60E9B01AC0120
:1007300069897A898B899C890E94DF0FEFA9F8ADBE
:100740006083718382839383A70196010E94CC11F9
:100750009B01AC01C301B2010E94F60EE9ADFAADF6
:10076000608371838283938364960FB6F894DEBFAF
:100770000FBECDBFDF91CF911F910F91FF90EF90F2
:10078000DF90CF90BF90AF909F908F907F906F90B1
:100790005F904F90089597FF03C0919581959109BF
:1007A00008951F93CF93DF93FC01EB01009751F164
:1007B000209749F121E030E040E010E0E217F30734
:1007C0006CF4EC9FC001ED9F900DFC9F900D1124E7
:1007D000642F712F0E941014CB0115C0C217D307CC
:1007E00084F3CF01B9010E941014892B41F4CE018A
:1007F000B9010E941014892B11F4422F132F2F5F7F
:100800003F4FDCCFCB01DF91CF911F910895CF9265
:10081000DF92EF92FF920F931F93CF93DF93EC0140
:100820006A017B01C901B801A70196010E94BF11AD
:1008300087FD03C081E090E002C08FEF9FEF9983B6
:100840008883DF91CF911F910F91FF90EF90DF9000
:10085000CF9008954F925F926F927F928F929F9266
:10086000AF92BF92CF92DF92EF92FF920F931F93BE
:10087000CF93DF93CDB7DEB72E970FB6F894DEBFD8
:100880000FBECDBF49015A01FE86ED862BED3FE03C
:1008900049E450E40E94CC1120E030E044E353E40A
:1008A0000E94DF0F6B017C016091C50370E080E066
:1008B00090E00E94891069837A838B839C83C701AF
:1008C000B6010E94DA0F2B013C016091C40370E075
:1008D00080E090E00E9489106D837E838F839887EB
:1008E0002BED3FE049E450E4C501B4010E94CC1176
:1008F00020E030E044E353E40E94DF0FA7019601BB
:100900000E94F70E4B015C010E94DA0F69877A871B
:100910008B879C87A301920169817A818B819C815D
:100920000E94CC112B013C0129853A854B855C85C1
:100930006D817E818F8198850E94CC119B01AC01D5
:10094000C301B2010E94F70EF801608371838283B4
:100950009383C701B6010E9489126B017C01C50116
:10096000B4010E9489124B015C01A70196016981C3
:100970007A818B819C810E94CC116B017C01A50145
:1009800094016D817E818F8198850E94CC119B019D
:10099000AC01C701B6010E94F70EED85FE856083AC
:1009A0007183828393832E960FB6F894DEBF0FBEB9
:1009B000CDBFDF91CF911F910F91FF90EF90DF900E
:1009C000CF90BF90AF909F908F907F906F905F90EF
:1009D0004F9008952F923F924F925F926F927F9225
:1009E0008F929F92AF92BF92CF92DF92EF92FF923F
:1009F0000F931F93CF93DF93CDB7DEB7A0970FB6BA
:100A0000F894DEBF0FBECDBFA982BA82CB82DC8252
:100A1000ED82FE820F8318872796CEACDFAC279736
:100A200029962EAC3FAC299729813A814B815C8174
:100A30006DA97EA98FA998AD0E94F60E698B7A8B5D
:100A40008B8B9C8B2D813E814F81588569AD7AAD12
:100A50008BAD9CAD0E94F60E4B015C0129893A8951
:100A60004B895C89CA01B9010E94CC112B013C0160
:100A7000A5019401C501B4010E94CC119B01AC01F8
:100A8000C301B2010E94F70E0E9497122B013C0194
:100A90000091C4031091C503612F70E0600F711DB8
:100AA000072E000C880B990B0E948910A30192015C
:100AB0000E94D50F87FF1EC086EC93E09EAB8DABE6
:100AC000A0960FB6F894DEBF0FBECDBFDF91CF91D9
:100AD0001F910F91FF90EF90DF90CF90BF90AF905C
:100AE0009F908F907F906F905F904F903F902F904E
:100AF0000C946814602F70E080E090E00E948710F2
:100B00006D8B7E8B8F8B988F612F70E080E090E0F3
:100B10000E948710698F7A8F8B8F9C8FED88FE885B
:100B20000F89188D9B01AC01C301B2010E94DD0247
:100B30006D8F7E8F8F8F98A383017201298D3A8DDF
:100B40004B8D5C8D6D897E898F89988D0E94DD0229
:100B50002B013C0129893A894B895C89C501B40183
:100B60000E94760F2D8D3E8D4F8D58A10E94F60E5E
:100B700020E030E044E353E40E94CC112BED3FE051
:100B800049E450E40E94DF0FF601608371838283A1
:100B90009383A30192016BED7FE089E490E40E94CE
:100BA000F60E20E030E044E353E40E94CC112BED3C
:100BB0003FE049E450E40E94DF0FF101608371835C
:100BC00082839383A0960FB6F894DEBF0FBECDBF8D
:100BD000DF91CF911F910F91FF90EF90DF90CF9019
:100BE000BF90AF909F908F907F906F905F904F904D
:100BF0003F902F900895CF92DF92EF92FF920F9344
:100C00001F93CF93DF938C01EB016A0179010E945E
:100C1000D1039C010115110531F481E090E0F6014A
:100C20009183808306C0B8010E94FC13F601718392
:100C30006083209731F481E090E0F7019183808315
:100C400007C0C901BE010E94FC13F70171836083D4
:100C5000DF91CF911F910F91FF90EF90DF90CF9098
:100C600008952F923F924F925F926F927F928F9250
:100C70009F92AF92BF92CF92DF92EF92FF920F932B
:100C80001F93CF93DF93CDB7DEB760970FB6F8947D
:100C9000DEBF0FBECDBF1C0129013A01470158013B
:100CA000CA94CD28A1F5672B79F42DEC3CEC4CECE3
:100CB0005DE3609127017091280180912901909155
:100CC0002A010E94F70E33C020E030E0A901C301E1
:100CD000B2010E94D50F2DEC3CEC4CEC5DE3811190
:100CE0000BC060912B0170912C0180912D0190918E
:100CF0002E010E94F70E45C060912B0170912C01CE
:100D000080912D0190912E010E94F70E55C0672B06
:100D100009F52DEC3CEC4CEC5DE360912701709102
:100D200028018091290190912A010E94F60E9B01D1
:100D3000AC0169837A838B839C83C301B2010E94D7
:100D4000CC11A50194010E94F70E6D837E838F83E1
:100D5000988756C020E030E0A901C301B2010E948B
:100D6000D50F2DEC3CEC4CEC5DE381111BC0609188
:100D70002B0170912C0180912D0190912E010E94E8
:100D8000F60E6D837E838F839887809127019091E3
:100D90002801A0912901B0912A0189839A83AB830C
:100DA000BC832EC060912B0170912C0180912D018C
:100DB00090912E010E94F60E6B017C016D837E8363
:100DC0008F839887A301920160E070E080E89FE341
:100DD0000E94DF0FA70196010E94CC116B017C01DC
:100DE000A3019201C501B4010E94DF0F9B01AC0178
:100DF000C701B6010E94F60E69837A838B839C83B8
:100E0000CE010D969F938F9304979F938F938DB7E9
:100E10009EB740970FB6F8949EBF0FBE8DBFADB77B
:100E2000BEB7119680E1FE01319601900D928A9530
:100E3000E1F7A0909007B0909107C0909207D090F2
:100E40009307E0909407F090950700919607109112
:100E50009707209198073091990740919A075091F0
:100E60009B0760919C0770919D0780919E079091D0
:100E70009F070E94EA0480E1FE013196D1010190B2
:100E80000D928A95E1F70FB6F894DEBF0FBECDBF85
:100E9000C10160960FB6F894DEBF0FBECDBFDF91E3
:100EA000CF911F910F91FF90EF90DF90CF90BF9067
:100EB000AF909F908F907F906F905F904F903F90FA
:100EC0002F9008954F925F926F927F928F929F9290
:100ED000AF92BF92CF92DF92EF92FF920F931F9348
:100EE000CF93DF93CDB7DEB7E4970FB6F894DEBFAC
:100EF0000FBECDBFAD8EBE8ECF8ED8A2E9A2FAA214
:100F00000BA31CA32DA33EA34FA358A769A77AA7A1
:100F10008BA79CA74DA05EA06FA078A4C9A4DAA45B
:100F2000EBA4FCA48EE0FE013F96DF01982F1D92FA
:100F30009A95E9F73E97DF011D928A95E9F780902F
:100F40002F0190903001A0903101B0903201A301A7
:100F50009201C501B4010E94D50F18161CF081E062
:100F600090E002C08FEF9FEF9A8F898F80913301BD
:100F700090913401A0913501B09136018DA79EA7C3
:100F8000AFA7B8ABA7019601BC01CD010E94D50F58
:100F900018161CF081E090E002C08FEF9FEF9C8755
:100FA0008B87609151017091520180E090E00E9426
:100FB00087109B01AC0160E070E080E090E40E944B
:100FC000391269AB7AAB8BAB9CABA3019201C50123
:100FD000B4010E94F60E4B015C0129A93AA94BA964
:100FE0005CA966E676E686EE9FE30E94DF0F9B0132
:100FF000AC01C501B4010E94DF0F20E030E040E009
:101000005FE30E94F70E0E9451109B0177FF04C01E
:1010100022273327261B370B388F2F8B60915101E6
:101020007091520180E090E00E9487109B01AC011A
:1010300060E070E080E090E40E9439124B015C01B6
:10104000A70196016DA57EA58FA598A90E94F60E11
:101050006B017C01A501940166E676E686EE9FE3CE
:101060000E94DF0F9B01AC01C701B6010E94DF0F98
:1010700020E030E040E05FE30E94F70E0E94511054
:101080009B0177FF04C022273327261B370B3A87A3
:10109000298769857A858F89988D9E01295F3F4FC1
:1010A000AE014B5E5F4F0E94FB05CF88D88C6091EC
:1010B00051017091520180E090E00E9487109B01E5
:1010C000AC0160E070E080E090E40E9439124B01D6
:1010D0005C01E98CFA8CB60180E090E00E948710F8
:1010E0002B013C01A501940166E676E686EE9FE3BE
:1010F0000E94DF0F9B01AC01C301B2010E94CC1121
:101100004B015C01B701FF0C880B990B0E94891001
:101110009B01AC01C501B4010E94CC1120912F01AB
:101120003091300140913101509132010E94F70E0F
:101130004B015C0160932F0170933001809331016A
:1011400090933201C984DA84609151017091520107
:1011500080E090E00E9487109B01AC0160E070E0AD
:1011600080E090E40E9439122B013C010B851C8524
:10117000B60180E090E00E9487106B017C01A30122
:10118000920166E676E686EE9FE30E94DF0F9B0102
:10119000AC01C701B6010E94CC112B013C01B80182
:1011A000110F880B990B0E9489109B01AC01C301A0
:1011B000B2010E94CC112091330130913401409151
:1011C0003501509136010E94F70E9B01AC016093EE
:1011D00033017093340180933501909336018BE293
:1011E000E82E81E0F82E07E211E0C501B4010E946B
:1011F0002A0480E197E290934A018093490110927A
:1012000046011092450190933C0180933B0110925E
:10121000380110923701898D9A8D909350018093F7
:101220004F018D899E8990934C0180934B018F894A
:10123000988D90934E0180934D018B859C85909362
:101240004201809341018F81988590933E01809364
:101250003D0189859A859093400180933F0181E00B
:1012600090E090934A018093490190933C018093D0
:101270003B01E4960FB6F894DEBF0FBECDBFDF9101
:10128000CF911F910F91FF90EF90DF90CF90BF9083
:10129000AF909F908F907F906F905F904F90089548
:1012A0002F923F924F925F926F927F928F929F9276
:1012B000AF92BF92CF92DF92EF92FF920F931F9364
:1012C000CF93DF93CDB7DEB7E0970FB6F894DEBFCC
:1012D0000FBECDBFA98ABA8ACB8ADC8AED8AFE8A84
:1012E0000F8B188F298F3A8F4B8F5C8F6D8F7E8F6E
:1012F0008F8F98A389899A89AB89BC898FA398A776
:10130000A9A7BAA78D899E89AF89B88D8BA79CA7FD
:10131000ADA7BEA780ED93E00E947E1480911C01D2
:10132000082E000C990B88159905C9F091E08916D3
:10133000910451F40E943701AFEFB1EE24E0A150C7
:10134000B0402040E1F709C00E9426013FEF81EE46
:1013500094E0315080409040E1F700C0000080925E
:101360001C018091270190912801A0912901B09141
:101370002A018BA39CA3ADA3BEA39C01AD016FA1C9
:1013800078A589A59AA50E94F60E2B013C010E9422
:1013900051101B0177FF04C022243324261A370A78
:1013A000C0902B01D0902C01E0902D01F0902E01E7
:1013B000A70196016BA57CA58DA59EA50E94F60EA2
:1013C0004B015C010E9451107AA369A377FF06C00C
:1013D00022273327261B370B3AA329A381E090E06D
:1013E00098AB8FA7A9A1BAA12A163B0614F018AA98
:1013F0001FA62FA138A549A55AA56BA17CA18DA137
:101400009EA10E94D50F8823D9F0A3019201C501A6
:10141000B4010E94DF0F2B013C019B01AC016BA1C9
:101420007CA18DA19EA10E94CC119B01AC01C701A2
:10143000B6010E94F60E6BA37CA38DA39EA340C0B1
:10144000412C512C32013CC02FA138A549A55AA5E9
:10145000C501B4010E94D50F87FF43C029A13AA15D
:1014600022163306F4F180914D0190914E01892BA3
:1014700059F780913F0190914001892B29F7CC24A5
:10148000C394D12CEBA0FCA00DA11EA1A30192013D
:101490006FA578A9CE0101960E943106A980BA8075
:1014A000CB80DC80ED80FE800F81188529853A8510
:1014B0004B855C856D857E858F8598890E94620746
:1014C0008090270190902801A0902901B0902A01D6
:1014D000C0902B01D0902C01E0902D01F0902E01B6
:1014E000B3CFA70196016BA57CA58DA59EA50E94F3
:1014F000BF1118160CF043C089A19AA1281639060D
:101500000CF4B1CF3CC02FA138A549A55AA5C501FF
:10151000B4010E94BF1118160CF042C0A9A1BAA1D3
:101520002A163B06ECF180914D0190914E01892BDA
:1015300051F780913F0190914001892B21F7C12CF7
:10154000D12CEBA0FCA00DA11EA1A30192016FA5BF
:1015500078A9CE0101960E943106A980BA80CB807D
:10156000DC80ED80FE800F81188529853A854B85CA
:101570005C856D857E858F8598890E946207809045
:10158000270190902801A0902901B0902A01C090D5
:101590002B01D0902C01E0902D01F0902E01B3CFC3
:1015A000A70196016BA57CA58DA59EA50E94D50FD0
:1015B00087FF06C029A13AA1221633060CF4B3CF47
:1015C000E0960FB6F894DEBF0FBECDBFDF91CF918E
:1015D0001F910F91FF90EF90DF90CF90BF90AF9051
:1015E0009F908F907F906F905F904F903F902F9043
:1015F0000895CF93DF93CDB7DEB768970FB6F89411
:10160000DEBF0FBECDBF0E942A020E9401010E94D0
:1016100048010E94680182ED93E09F938F930E949E
:10162000681482E090E00E943F170F900F9085357C
:1016300009F446C065E582E090E00E94471787E024
:1016400094E00E947E1485E294E00E947E148091D2
:10165000A0079091A1070E942A144C018091A00735
:101660009091A1070E942A1420E3821A91088053C6
:10167000182F3AE0839E100D112485E494E00E9417
:101680007E148091A0079091A1070E942A144C011A
:101690008091A0079091A1070E942A1490E3891AD3
:1016A00091088053682FEAE08E9E600D112481E03E
:1016B00090E00E944717612F80E090E00E9447175A
:1016C00081E090E00E943F17182F8093C40380E0D0
:1016D00090E00E943F178093C5031F928F931F9243
:1016E0001F9388E694E09F938F930E9468140E9452
:1016F0002601FFEF23ED30E3F15020403040E1F7C9
:1017000000C000000E9437018FEF93EDE0E38150AD
:101710009040E040E1F700C0000020E137E2309364
:101720004E0120934D0181E090E090934C01809315
:101730004B019093500180934F01309340012093CF
:101740003F0190933E0180933D018FEF9FEF909377
:1017500042018093410183E391E09F938F938FE255
:1017600091E09F938F932DB73EB7205131090FB66B
:10177000F8943EBF0FBE2DBFADB7BEB7119680E146
:10178000E7E2F1E001900D928A95E1F7A0909007D1
:10179000B0909107C0909207D0909307E090940783
:1017A000F090950700919607109197072091980760
:1017B0003091990740919A0750919B0760919C073F
:1017C00070919D0780919E0790919F070E94EA0467
:1017D0000FB6F894DEBF0FBECDBF612C712C212C4B
:1017E000312C412C512CFE013196FA8BE98B9E0154
:1017F000235F3F4F3C8B2B8BCE0109969E8B8D8BAD
:1018000091E06916710409F465C1E2E06E16710495
:1018100009F43CC280E794E00E947E148AE794E0D9
:101820000E947E148091A0079091A1070E942A1423
:101830008E3241F488E994E00E947E1480E090E0CA
:101840000E9490178F7D8A3491F486EA94E00E947A
:101850007E148EEA94E00E947E148091A0079091FD
:10186000A1070E942A1472E0672E712C16C189EB21
:1018700094E00E947E148FEB94E00E947E1480918D
:10188000A0079091A1070E942A14082E000C990B22
:10189000AA0BBB0BFC01E156F109EA31F10508F096
:1018A00016C1EC5CFF4F0C9424148DED94E00E9463
:1018B0007E1466246394712C412C512CA1CF87EFA8
:1018C00094E00E947E1466246394712C4424439413
:1018D000512C96CF81E195E00E947E14662463949A
:1018E000712C32E0432E512C8BCF8BE295E00E947D
:1018F0007E1466246394712C93E0492E512C80CF82
:1019000085E495E00E947E1466246394712C04E0C3
:10191000402E512C75CF8FE595E00E947E146624F1
:101920006394712CB5E04B2E512C6ACF89E795E07A
:101930000E947E1466246394712CF6E04F2E512C85
:101940005FCF83E995E00E947E1466246394712C36
:1019500077E0472E512C54CF8DEA95E00E947E14FB
:1019600066246394712C58E0452E512C49CF87ECA6
:1019700095E00E947E1466246394712C39E0432E16
:10198000512C3ECF81EE95E00E947E146624639434
:10199000712C9AE0492E512C33CF8BEF95E00E94A9
:1019A0007E1466246394712C0BE0402E512C28CFBA
:1019B00085E196E00E947E1466246394712CBCE05D
:1019C0004B2E512C1DCF8FE296E00E947E14662490
:1019D0006394712CFDE04F2E512C12CF89E496E0D8
:1019E0000E947E1466246394712C7EE0472E512C55
:1019F00007CF83E696E00E947E1466246394712CE0
:101A00005FE0452E512CFCCE8DE796E00E947E14BF
:101A100066246394712C30E1432E512CF1CE87E97A
:101A200096E00E947E1466246394712C91E1492E05
:101A3000512CE6CE81EB96E00E947E1466246394DE
:101A4000712C02E1402E512CDBCE8BEC96E00E94F3
:101A50007E1466246394712CB3E14B2E512CD0CEAE
:101A600085EE96E00E947E1466246394712CF4E166
:101A70004F2E512CC5CE8FEF96E00E947E14662427
:101A80006394712C75E1472E512CBACE89E197E011
:101A90000E947E1466246394712C46E1442E512CDE
:101AA000AFCE83E397E00E947E1466246394712C8A
:101AB00037E1432E512CA4CE8DE497E00E947E1492
:101AC00066246394712C98E1492E512C99CE87E6B7
:101AD00097E0DECF10E1E989FA89212F11922A954A
:101AE000E9F729E1249DC001259D900D1124FC01F9
:101AF000ED5AFE4FF88FEF8B4F01820C931CF401CF
:101B0000618170E080E090E00E94871020E030E08A
:101B100040E251E40E94DF0F69837A838B839C83C8
:101B2000F401628170E080E090E00E94871020E084
:101B300030E040E251E40E94DF0F6D837E838F83AB
:101B40009887FC89FF932B892F933E893F938D893A
:101B50008F93EDB7FEB770970FB6F894FEBF0FBE28
:101B6000EDBFADB7BEB71196FE01319601900D9253
:101B70001A95E1F7A0909007B0909107C090920756
:101B8000D0909307E0909407F09095070091960706
:101B900010919707209198073091990740919A07E3
:101BA00050919B0760919C0770919D0780919E07C3
:101BB00090919F070E94EA04F3E02F0E311CEF89F9
:101BC000F88DE20DF31D8080912CA980BA80CB8026
:101BD000DC80ED80FE800F81188529853A854B8554
:101BE0005C856D857E858F8598890E94500920E0EF
:101BF00030E04AE754E46091330170913401809100
:101C00003501909136010E94CC110E9451107F93B2
:101C10006F9320E030E04AE754E460912F01709127
:101C2000300180913101909132010E94CC110E94CB
:101C300051107F936F9320E030E04AE754E46091C5
:101C40002B0170912C0180912D0190912E010E9409
:101C5000CC110E9451107F936F9320E030E04AE74F
:101C600054E460912701709128018091290190919D
:101C70002A010E94CC110E9451107F936F932EE68F
:101C800037E03F932F930E9468148DC010E1E989DB
:101C9000FA89212F11922A95E9F729E1249DC001A3
:101CA000259D900D1124FC01ED5AFE4FF88FEF8B0E
:101CB0004F01820C931CF401618170E080E090E0A0
:101CC0000E94871020E030E040E251E40E94DF0FE4
:101CD00069837A838B839C83F401628170E080E066
:101CE00090E00E94871020E030E040E251E40E9442
:101CF000DF0F6D837E838F839887FC89FF932B8909
:101D00002F933E893F938D898F93EDB7FEB77097E0
:101D10000FB6F894FEBF0FBEEDBFADB7BEB71196BC
:101D2000FE01319601900D921A95E1F7A09090076F
:101D3000B0909107C0909207D0909307E0909407DD
:101D4000F0909507009196071091970720919807BA
:101D50003091990740919A0750919B0760919C0799
:101D600070919D0780919E0790919F070E94EA04C1
:101D7000F3E02F0E311CEF89F88DE20DF31D80800A
:101D8000912CA980BA80CB80DC80ED80FE800F8111
:101D9000188529853A854B855C856D857E858F857F
:101DA00098890E945009EF89F88D808190E00FB6E4
:101DB000F894DEBF0FBECDBF281639060CF420CD37
:101DC000612C712C212C312C1BCD9F939F770E946D
:101DD000C4100F90002042F49058A2EA2AED3FE090
:101DE00049E450E40E940E0F0C9471115058BB2727
:101DF000AA270E940E0F0C9471110E94381138F01E
:101E00000E943F1120F039F49F3F19F426F40C94FE
:101E10000E110EF4E095E7FB0C940811E92F0E94D7
:101E2000961158F3BA17620773078407950720F0D5
:101E300079F4A6F50C94B8110EF4E0950B2EBA2F98
:101E4000A02D0B01B90190010C01CA01A0011124C0
:101E5000FF27591B99F0593F50F4503E68F11A166C
:101E6000F040A22F232F342F4427585FF3CF4695FD
:101E700037952795A795F0405395C9F77EF41F161F
:101E8000BA0B620B730B840BBAF09150A1F0FF0FE9
:101E9000BB1F661F771F881FC2F70EC0BA0F621FD5
:101EA000731F841F48F4879577956795B795F795C5
:101EB0009E3F08F0B0CF9395880F08F09927EE0F5A
:101EC0009795879508950E94381160F080E891E019
:101ED00009F49EEF0E943F1128F040E851E071F4B0
:101EE0005EEF0CC00C940E110C94B811E92FE07841
:101EF0000E94961140F3092E052AB1F326173707E1
:101F00004807590738F00E2E07F8E02569F0E0255C
:101F1000E0640AC0EF6307F8009407FADB01B90137
:101F20009D01DC01CA01AD01EF930E94F60F0E94F2
:101F300071110E94A60F5F91552339F02BED3FE000
:101F400049E450FD49EC0C94F70E0895DF93DD272A
:101F5000B92FBF7740E85FE31616170648075B07FF
:101F600018F4D92F0E94C4119F938F937F936F937E
:101F70000E94D712ECE9F0E00E9411110E94711149
:101F80002F913F914F915F910E94DF11DD2351F01E
:101F90009058A2EA2AED3FE049EC5FE3D0785D2754
:101FA0000E940E0FDF910C9471110E94E41008F44E
:101FB00081E008950E944811E3950C9482110E94DB
:101FC000F30F0C9471110E943F1158F00E943811C8
:101FD00040F029F45F3F29F00C94081151110C9442
:101FE000B9110C940E110E94961168F39923B1F364
:101FF000552391F3951B550BBB27AA27621773072F
:10200000840738F09F5F5F4F220F331F441FAA1FC2
:10201000A9F335D00E2E3AF0E0E832D0915050407E
:10202000E695001CCAF72BD0FE2F29D0660F771F2C
:10203000881FBB1F261737074807AB07B0E809F012
:10204000BB0B802DBF01FF2793585F4F3AF09E3F97
:10205000510578F00C9408110C94B9115F3FE4F32A
:10206000983ED4F3869577956795B795F7959F5FDA
:10207000C9F7880F911D9695879597F90895E1E026
:10208000660F771F881FBB1F621773078407BA0785
:1020900020F0621B730B840BBA0BEE1F88F7E095E0
:1020A00008950E9458106894B1110C94B9110895C4
:1020B0000E949E1188F09F5798F0B92F9927B75129
:1020C000B0F0E1F0660F771F881F991F1AF0BA95DC
:1020D000C9F714C0B13091F00E94B811B1E0089571
:1020E0000C94B811672F782F8827B85F39F0B93F63
:1020F000CCF3869577956795B395D9F73EF490958F
:102100008095709561957F4F8F4F9F4F0895E8940C
:1021100009C097FB3EF490958095709561957F4F2F
:102120008F4F9F4F9923A9F0F92F96E9BB279395DD
:10213000F695879577956795B795F111F8CFFAF4ED
:10214000BB0F11F460FF1BC06F5F7F4F8F4F9F4F1E
:1021500016C0882311F096E911C0772321F09EE87C
:10216000872F762F05C0662371F096E8862F70E0E2
:1021700060E02AF09A95660F771F881FDAF7880FBC
:102180009695879597F90895DF93CF931F930F93B3
:102190008B01EC01E9ECF0E00E9411110E94711139
:1021A0009801AE018B01EC0160E070E080E89FE3F4
:1021B0000E94F60E0E9497129801AE010F911F9196
:1021C000CF91DF910C94DF11990F0008550FAA0BE6
:1021D000E0E8FEEF16161706E807F907C0F012163A
:1021E0001306E407F50798F0621B730B840B950B3D
:1021F00039F40A2661F0232B242B252B21F4089592
:102200000A2609F4A140A6958FEF811D811D08952E
:1022100097F99F6780E870E060E008959FEF80EC99
:102220000895DF93CF931F930F93FF92EF92DF9266
:102230007B018C01689406C0DA2EEF010E94DF1149
:10224000FE01E894A5912591359145915591A6F30C
:10225000EF010E940E0FFE019701A801DA9469F7C1
:10226000DF90EF90FF900F911F91CF91DF91089534
:1022700000240A9416161706180609060895002465
:102280000A94121613061406050608950C940E11EE
:102290000E949E11D8F3E894E0E0BB279F57F0F02E
:1022A0002AED3FE049EC06C0EE0FBB0F661F771F1B
:1022B000881F28F0B23A62077307840728F0B25AE1
:1022C000620B730B840BE3959A9572F7803830F4A8
:1022D0009A95BB0F661F771F881FD2F790480C9402
:1022E0001713092E0394000C11F4882352F0BB0F2E
:1022F00040F4BF2B11F460FF04C06F5F7F4F8F4F1E
:102300009F4F0895EF93E0FF07C0A2EA2AED3FE058
:1023100049EC5FEB0E940E0F0E9471110F90039425
:1023200001FC9058E1EFF0E00C942A1357FD90580F
:10233000440F551F59F05F3F71F04795880F97FB89
:10234000991F61F09F3F79F0879508951216130643
:102350001406551FF2CF4695F1DF08C01616170672
:102360001806991FF1CF86957105610508940895A7
:10237000E894BB2766277727CB0197F908950E9439
:10238000E41008F48FEF08959B01AC0160E070E069
:1023900080E89FE30C94DF0F0E94DF110C94711111
:1023A0000E94381138F00E943F1120F0952311F05F
:1023B0000C9408110C940E1111240C94B9110E9464
:1023C000961170F3959FC1F3950F50E0551F629FD2
:1023D000F001729FBB27F00DB11D639FAA27F00D7E
:1023E000B11DAA1F649F6627B00DA11D661F829FA5
:1023F0002227B00DA11D621F739FB00DA11D621F8A
:10240000839FA00D611D221F749F3327A00D611DA6
:10241000231F849F600D211D822F762F6A2F112488
:102420009F5750409AF0F1F088234AF0EE0FFF1FBB
:10243000BB1F661F771F881F91505040A9F79E3F12
:10244000510580F00C9408110C94B9115F3FE4F32E
:10245000983ED4F3869577956795B795F795E79568
:102460009F5FC1F7FE2B880F911D9695879597F971
:102470000895FA01EE0FFF1F309621053105A1F1F5
:102480006115710561F48038BFE39B0749F16894D9
:102490009038810561F08038BFEF9B0741F09923A8
:1024A0004AF5FF3FE1053105210519F1E89408944B
:1024B000E795D901AA2329F4AB2FBE2FF85FD0F3FB
:1024C00010C0FF5F70F4A695E0F7F73950F019F0EF
:1024D000FF3A38F49F779F930DD00F9007FC9058E8
:1024E000089546F00C940E1160E070E080E89FE3E0
:1024F00008954FE79F775F934F933F932F930E94E9
:1025000080132F913F914F915F910E94CC110C94B9
:10251000E3129F930E9448110F9007FCEE5F0C940A
:10252000821119F416F40C940E110C9415130E94D8
:102530009E11B8F39923C9F3B6F39F57550B87FF44
:102540000E9423130024A0E640EA9001805856958B
:10255000979528F4805C660F771F881F20F0261758
:102560003707480730F4621B730B840B202931298D
:102570004A2BA69517940794202531254A2758F70A
:10258000660F771F881F20F026173707480730F49B
:10259000620B730B840B200D311D411DA09581F73B
:1025A000B901842F9158880F9695879508959B01BE
:1025B000AC010C94CC1129F416F00C9408110C9475
:1025C000B8110C940E110E949E11A8F39638A0F732
:1025D00007F80F92E8942BE33AEA48EB5FE70E9492
:1025E000E2110F920F920F924DB75EB70F920E94B9
:1025F000C813EFE0F1E00E9411114F915F91EF914C
:10260000FF91E595EE1FFF1F49F0FE57E068442754
:10261000EE0F441FFA95E1F74195550B0E944213C6
:102620000F9007FE0C94C41108959F3F31F0915014
:1026300020F4879577956795B795880F911D9695A6
:10264000879597F9089591505040660F771F881F1E
:10265000D2F708959F938F937F936F93FF93EF9398
:102660009B01AC010E94CC11EF91FF910E941111CE
:102670002F913F914F915F910C94CC110C940811C4
:102680000C9415130E949E11D8F39923C9F3940F4B
:10269000511DA3F39150504094F059F0882332F02B
:1026A000660F771F881F91505040C1F79E3F51051C
:1026B0002CF7880F911D9695879597F908955F3FA0
:1026C000ACF0983E9CF0BB27869577956795B795BB
:1026D00008F4B1609395C1F7BB0F58F711F460FF90
:1026E000E8CF6F5F7F4F8F4F9F4FE3CF0C94B911AF
:1026F00016F00C9415130C940E1168940C94081198
:102700000E949E11A8F39923C1F3AEF3DF93CF93F8
:102710001F930F93FF92C92FDD2788232AF021975B
:10272000660F771F881FDAF720E030E040E85FEBA4
:102730009FE3883920F0803E38F021968F770E9401
:10274000F70EE7E3F1E004C00E94F70EE4E6F1E0E3
:102750000E9411118B01BE01EC01FB2E6F57710914
:102760007595771F880B990B0E94891028E132E735
:1027700041E35FE30E94DF11AF2D9801AE01FF90AE
:102780000F911F91CF91DF910E940E0F0C94711148
:10279000FA01DC01AA0FBB1F9B01AC01BF5728F453
:1027A000222733274427507820C0B75190F4AB2F0D
:1027B0000024469537952795011CA395D2F3002058
:1027C00071F0220F331F441FB395DAF30ED00C942F
:1027D000F60E61307105A0E88A07B94630F49B0116
:1027E000AC016627772788279078309621F02083E0
:1027F0003183428353830895AA1BBB1B51E107C059
:10280000AA1FBB1FA617B70710F0A61BB70B881F80
:10281000991F5A95A9F780959095BC01CD0108950F
:1028200097FB072E16F4009407D077FD09D00E947D
:10283000FC1307FC05D03EF4909581959F4F0895B9
:10284000709561957F4F0895EE0FFF1F0590F491ED
:10285000E02D0994CF93DF93EC012B8120FF33C04F
:1028600026FF0AC02F7B2B838E819F8101969F8339
:102870008E838A8190E029C022FF0FC0E881F98110
:102880008081082E000C990B009719F420622B838D
:102890001AC03196F983E8830EC0EA85FB85099555
:1028A00097FF09C02B81019611F080E201C080E101
:1028B000822B8B8308C02E813F812F5F3F4F3F8348
:1028C0002E83992702C08FEF9FEFDF91CF9108955C
:1028D000A0E0B0E0EEE6F4E10C946917AE014B5FC6
:1028E0005F4FFA0161917191AF018091A2079091C0
:1028F000A3070E94AE14E2E00C9485170F931F9378
:10290000CF93DF93E091A207F091A307238121FFEA
:102910001BC08C01D0E0C0E0F80181918F01609173
:10292000A2077091A307DB011896ED91FC9119970E
:10293000882331F00995892B79F3DFEFCFEFECCFC6
:102940008AE00995892B19F08FEF9FEF02C08D2F38
:102950009C2FDF91CF911F910F910895ABE0B0E0D4
:10296000E4EBF4E10C9459176C017B018A01FC0142
:1029700017821682838181FFCCC1CE0101963C0172
:10298000F6019381F70193FD859193FF81917F017A
:10299000882309F4BAC1853239F493FD859193FFF8
:1029A00081917F01853229F4B60190E00E94A5163D
:1029B000E7CF912C212C312CFFE1F315D8F08B328D
:1029C00079F038F4803279F08332A1F4232D20613C
:1029D0001DC08D3261F0803369F4232D216016C053
:1029E000832D8260382EE32DE4603E2E2AC0F32D25
:1029F000F8601DC037FC2DC020ED280F2A3040F0B4
:102A00008E32B9F436FC81C1232D2064322E19C0D8
:102A100036FE06C08AE0989E200D1124922E11C029
:102A2000EAE02E9E200D1124222EF32DF0623F2E7F
:102A300008C08C3621F4832D8068382E02C0883679
:102A400041F4F70193FD859193FF81917F018111FD
:102A5000B3CF982F9F7D9554933028F40C5F1F4F70
:102A60009FE399830DC0833631F0833771F083354E
:102A700009F059C021C0F801808189830E5F1F4F82
:102A800088248394912C530113C02801F2E04F0E47
:102A9000511CF801A080B18036FE03C0692D70E0A2
:102AA00002C06FEF7FEFC5010E949A164C018201B0
:102AB000F32DFF773F2E16C0280122E0420E511C55
:102AC000F801A080B18036FE03C0692D70E002C01D
:102AD0006FEF7FEFC5010E948F164C01F32DF06858
:102AE0003F2E820133FC1BC0822D90E08816990690
:102AF000B0F4B60180E290E00E94A5162A94F4CFCB
:102B0000F50137FC859137FE81915F01B60190E0B8
:102B10000E94A51621102A9421E0821A910881149E
:102B2000910471F7E8C0843611F0893641F5F80157
:102B300037FE07C060817181828193810C5F1F4FD6
:102B400008C060817181072E000C880B990B0E5F05
:102B50001F4FF32DFF763F2E97FF09C0909580956C
:102B6000709561957F4F8F4F9F4FF0683F2E2AE001
:102B700030E0A3010E94E116882E861845C08537F3
:102B800031F4232D2F7EB22E2AE030E025C0932D84
:102B9000997FB92E8F36C1F018F4883579F0B5C019
:102BA000803719F0883721F0B0C0E92FE061BE2EE0
:102BB000B4FE0DC0FB2DF460BF2E09C034FE0AC068
:102BC000292F2660B22E06C028E030E005C020E1A3
:102BD00030E002C020E132E0F801B7FE07C06081BA
:102BE0007181828193810C5F1F4F06C0608171816A
:102BF00080E090E00E5F1F4FA3010E94E116882E37
:102C00008618FB2DFF773F2E36FE0DC0232D2E7F1D
:102C1000A22E891458F434FE0BC032FC09C0832D57
:102C20008E7EA82E05C0B82CA32C03C0B82C01C0E2
:102C3000B92CA4FE0FC0FE01E80DF11D8081803388
:102C400021F49A2D997EA92E09C0A2FE06C0B39444
:102C5000B39404C08A2D867809F0B394A3FC11C004
:102C6000A0FE06C0B21488F4280C922C9B180EC04B
:102C7000B21460F4B60180E290E00E94A516B3940D
:102C8000F7CFB21418F42B1802C0982C212CA4FEF4
:102C900010C0B60180E390E00E94A516A2FE17C006
:102CA000A1FC03C088E790E002C088E590E0B6018F
:102CB0000CC08A2D867859F0A1FE02C08BE201C0BB
:102CC00080E2A7FC8DE2B60190E00E94A51689146F
:102CD00038F4B60180E390E00E94A5169A94F7CFED
:102CE0008A94F301E80DF11D8081B60190E00E9405
:102CF000A5168110F5CF222009F442CEB60180E25C
:102D000090E00E94A5162A94F6CFF601868197815D
:102D100002C08FEF9FEF2B96E2E10C947517FC0138
:102D20000590615070400110D8F7809590958E0FF6
:102D30009F1F0895FC016150704001900110D8F769
:102D4000809590958E0F9F1F08950F931F93CF939B
:102D5000DF93FB01238121FD03C08FEF9FEF2CC088
:102D600022FF16C0468157812481358142175307BF
:102D700044F4A081B1819D012F5F3F4F31832083B7
:102D80008C93268137812F5F3F4F3783268314C072
:102D90008B01EC01FB010084F185E02D0995892B65
:102DA000E1F6D80116968D919C911797019617968A
:102DB0009C938E931697CE01DF91CF911F910F9127
:102DC0000895FA01AA27283051F1203181F1E894C1
:102DD0006F936E7F6E5F7F4F8F4F9F4FAF4FB1E00E
:102DE0003ED0B4E03CD0670F781F891F9A1FA11D09
:102DF000680F791F8A1F911DA11D6A0F711D811D0A
:102E0000911DA11D20D009F468943F912AE0269FCE
:102E100011243019305D3193DEF6CF010895462F2D
:102E20004770405D4193B3E00FD0C9F7F6CF462F0E
:102E30004F70405D4A3318F0495D31FD4052419377
:102E400002D0A9F7EACFB4E0A69597958795779534
:102E50006795BA95C9F700976105710508959B01BB
:102E6000AC010A2E06945795479537952795BA9544
:102E7000C9F7620F731F841F951FA01D0895F9994C
:102E8000FECF92BD81BDF89A992780B50895262F6F
:102E9000F999FECF92BD81BDF89A019700B4021650
:102EA00039F01FBA20BD0FB6F894FA9AF99A0FBEFE
:102EB00008952F923F924F925F926F927F928F92DE
:102EC0009F92AF92BF92CF92DF92EF92FF920F93B9
:102ED0001F93CF93DF93CDB7DEB7CA1BDB0B0FB6C3
:102EE000F894DEBF0FBECDBF09942A883988488880
:102EF0005F846E847D848C849B84AA84B984C88416
:102F0000DF80EE80FD800C811B81AA81B981CE0F0C
:102F1000D11D0FB6F894DEBF0FBECDBFED010895F1
:042F2000F894FFCF53
:102F240000000001000000000000F90000000000A3
:102F3400000200000000E800000000006300002020
:102F4400001000300038000000A041000000000024
:102F54000000000000000000000000640000000009
:102F640000010004000000000064000000000001F3
:102F74000004000F3232004164015032014B4B0017
:102F8400374B01000000000000000000184632002A
:102F9400466401506401505201464B0150460150B1
:102FA40032014632010C46320032320132640146AB
:102FB4006401000000000000000000000000153C57
:102FC40032003C64014664014B5A014B37014632DE
:102FD400013C3201000000124632003232013264F8
:102FE40001466401324B003C4B010000000000002C
:102FF4000F323200326401466401324B003C4B0113
:1030040000000000000000000015434100434B0194
:103014004B4B014B32013732013764014B640100E1
:10302400000012343200346401344B00464B014634
:1030340032004664010000000000001232320046F3
:1030440032013C32003C64013264004664010000F9
:10305400000000000C3246003232013E32013E6470
:1030640001000000000000000000000000123232E5
:10307400003264013250003C64013250003C3201A1
:1030840000000000000009326400323201413201C4
:103094000000000000000000000000000000000F1D
:1030A4003232003264013C50014664014632010070
:1030B40000000000000000000C32320032640141C4
:1030C4003201416401000000000000000000000023
:1030D400000F323200326401416401413201323264
:1030E400010000000000000000000F3232003264D2
:1030F40001416401414B01324B010000000000001A
:103104000000001532320032640141640141320191
:103114003232013C3C0046280100000012323200E9
:103124003264014164014150013250013E320100D8
:10313400000000000012323200413201414B0132E2
:103144004B013264014164010000000000000C3CAA
:1031540032003C6401326400466401000000000057
:10316400000000000000000C3264003232014132E1
:1031740001416401000000000000000000000000A4
:103184000C32640039320141640100000000000087
:103194000000000000000000000C32320041640115
:1031A4003264004132010000000000000000000011
:1031B40000000C374B003C640132640039320100DA
:1031C40000000000000000000000000C3264004118
:1031D40064013232014132010000000000000000AD
:1031E400000000001414546F6F206661720A0D0011
:1031F4002A000A0A0A0D53636172612061726D200C
:103204007374617274696E672028E0B88720CDA159
:10321400CA9820CD9CCA9620CDA1CA9829E0B88727
:1032240020210A0A0A0D00456E5472416E446F2033
:10323400456D204D6F446F20436F4E66496755724C
:103244004163416F0009436F6D7072696D656E74FF
:103254006F20427261C3A76F202830206120393962
:1032640020636D290009436F6D7072696D656E741A
:103274006F20416E7465627261636F202830206133
:1032840020393920636D290025642025640D0A0046
:103294004C616E67756167653F00506F7274756746
:1032A4007565736520287029202F206A6170616E0E
:1032B40065736520286A29005368757474696E679C
:1032C40020446F776E00596F6B6F736F21005465E4
:1032D40067616D693F203A29004F6CC3A1210051F9
:1032E40075616C20C3A92061206C657472612C2007
:1032F4004F6820476F72646F2F613F2100416669F8
:10330400726D617469766F212041717569207661EF
:103314006920756D204100416669726D617469763A
:103324006F2120417175692076616920756D204295
:1033340000416669726D617469766F21204171750F
:10334400692076616920756D204300416669726D5C
:10335400617469766F2120417175692076616920F5
:10336400756D204400416669726D617469766F21E0
:1033740020417175692076616920756D2045004191
:103384006669726D617469766F2120417175692077
:1033940076616920756D204600416669726D6174BD
:1033A40069766F2120417175692076616920756D98
:1033B400204700416669726D617469766F2120410E
:1033C4007175692076616920756D204800416669D0
:1033D400726D617469766F2120417175692076611F
:1033E4006920756D204900416669726D6174697662
:1033F4006F2120417175692076616920756D204ABD
:1034040000416669726D617469766F21204171753E
:10341400692076616920756D204B00416669726D83
:10342400617469766F212041717569207661692024
:10343400756D204C00416669726D617469766F2107
:1034440020417175692076616920756D204D0041B8
:103454006669726D617469766F21204171756920A6
:1034640076616920756D204E00416669726D6174E4
:1034740069766F2120417175692076616920756DC7
:10348400204F00416669726D617469766F21204135
:103494007175692076616920756D205000416669F7
:1034A400726D617469766F2120417175692076614E
:1034B4006920756D205100416669726D6174697689
:1034C4006F2120417175692076616920756D2052E4
:1034D40000416669726D617469766F21204171756E
:1034E400692076616920756D205300416669726DAB
:1034F400617469766F212041717569207661692054
:10350400756D205400416669726D617469766F212E
:1035140020417175692076616920756D20550041DF
:103524006669726D617469766F21204171756920D5
:1035340076616920756D205600416669726D61740B
:1035440069766F2120417175692076616920756DF6
:10355400205800416669726D617469766F2120415B
:103564007175692076616920756D2059004166691D
:10357400726D617469766F2120417175692076617D
:103584006920756D205A004E414E493F2100256443
:10359400207820256420792025642074686574616E
:0E35A40031202564207468657461320A0D00C0
:00000001FF
